{
  "_format": "hh-sol-artifact-1",
  "contractName": "DocumentVerification",
  "sourceName": "contracts/DocumentVerification.sol",
  "abi": [
    {
      "anonymous": false,
      "inputs": [
        {
          "indexed": false,
          "internalType": "string",
          "name": "certificateNumber",
          "type": "string"
        },
        {
          "indexed": false,
          "internalType": "string",
          "name": "documentHash",
          "type": "string"
        },
        {
          "indexed": false,
          "internalType": "uint256",
          "name": "timestamp",
          "type": "uint256"
        }
      ],
      "name": "DocumentRegistered",
      "type": "event"
    },
    {
      "inputs": [
        {
          "internalType": "string",
          "name": "",
          "type": "string"
        }
      ],
      "name": "documents",
      "outputs": [
        {
          "internalType": "string",
          "name": "certificateNumber",
          "type": "string"
        },
        {
          "internalType": "string",
          "name": "documentHash",
          "type": "string"
        },
        {
          "internalType": "uint256",
          "name": "timestamp",
          "type": "uint256"
        },
        {
          "internalType": "bool",
          "name": "exists",
          "type": "bool"
        }
      ],
      "stateMutability": "view",
      "type": "function"
    },
    {
      "inputs": [
        {
          "internalType": "string",
          "name": "_certificateNumber",
          "type": "string"
        }
      ],
      "name": "getDocument",
      "outputs": [
        {
          "internalType": "string",
          "name": "",
          "type": "string"
        },
        {
          "internalType": "string",
          "name": "",
          "type": "string"
        },
        {
          "internalType": "uint256",
          "name": "",
          "type": "uint256"
        },
        {
          "internalType": "bool",
          "name": "",
          "type": "bool"
        }
      ],
      "stateMutability": "view",
      "type": "function"
    },
    {
      "inputs": [
        {
          "internalType": "string",
          "name": "_certificateNumber",
          "type": "string"
        },
        {
          "internalType": "string",
          "name": "_documentHash",
          "type": "string"
        }
      ],
      "name": "registerDocument",
      "outputs": [],
      "stateMutability": "nonpayable",
      "type": "function"
    },
    {
      "inputs": [
        {
          "internalType": "string",
          "name": "_certificateNumber",
          "type": "string"
        },
        {
          "internalType": "string",
          "name": "_documentHash",
          "type": "string"
        }
      ],
      "name": "verifyDocument",
      "outputs": [
        {
          "internalType": "bool",
          "name": "",
          "type": "bool"
        },
        {
          "internalType": "uint256",
          "name": "",
          "type": "uint256"
        }
      ],
      "stateMutability": "view",
      "type": "function"
    }
  ],
  "bytecode": "0x608060405234801561001057600080fd5b50610ed0806100206000396000f3fe608060405234801561001057600080fd5b506004361061004c5760003560e01c80631c49ea91146100515780637ccb6a641461006d578063a4ca650b146100a0578063b3dd697b146100d1575b600080fd5b61006b600480360381019061006691906108a2565b610104565b005b6100876004803603810190610082919061091a565b61024d565b6040516100979493929190610a16565b60405180910390f35b6100ba60048036038101906100b591906108a2565b6103ec565b6040516100c8929190610a69565b60405180910390f35b6100eb60048036038101906100e6919061091a565b6105e5565b6040516100fb9493929190610a16565b60405180910390f35b6000826040516101149190610ace565b908152602001604051809103902060030160009054906101000a900460ff1615610173576040517f08c379a000000000000000000000000000000000000000000000000000000000815260040161016a90610b57565b60405180910390fd5b6040518060800160405280838152602001828152602001428152602001600115158152506000836040516101a79190610ace565b908152602001604051809103902060008201518160000190816101ca9190610d83565b5060208201518160010190816101e09190610d83565b506040820151816002015560608201518160030160006101000a81548160ff0219169083151502179055509050507ff83920a2af454523dc6877a79d36021634c59bb67a5757dbdb937c7198bf675982824260405161024193929190610e55565b60405180910390a15050565b606080600080600080866040516102649190610ace565b908152602001604051809103902060405180608001604052908160008201805461028d90610ba6565b80601f01602080910402602001604051908101604052809291908181526020018280546102b990610ba6565b80156103065780601f106102db57610100808354040283529160200191610306565b820191906000526020600020905b8154815290600101906020018083116102e957829003601f168201915b5050505050815260200160018201805461031f90610ba6565b80601f016020809104026020016040519081016040528092919081815260200182805461034b90610ba6565b80156103985780601f1061036d57610100808354040283529160200191610398565b820191906000526020600020905b81548152906001019060200180831161037b57829003601f168201915b50505050508152602001600282015481526020016003820160009054906101000a900460ff161515151581525050905080600001518160200151826040015183606001519450945094509450509193509193565b600080600080856040516104009190610ace565b908152602001604051809103902060405180608001604052908160008201805461042990610ba6565b80601f016020809104026020016040519081016040528092919081815260200182805461045590610ba6565b80156104a25780601f10610477576101008083540402835291602001916104a2565b820191906000526020600020905b81548152906001019060200180831161048557829003601f168201915b505050505081526020016001820180546104bb90610ba6565b80601f01602080910402602001604051908101604052809291908181526020018280546104e790610ba6565b80156105345780601f1061050957610100808354040283529160200191610534565b820191906000526020600020905b81548152906001019060200180831161051757829003601f168201915b50505050508152602001600282015481526020016003820160009054906101000a900460ff1615151515815250509050806060015161057a5760008092509250506105de565b60008460405160200161058d9190610ace565b6040516020818303038152906040528051906020012082602001516040516020016105b89190610ace565b604051602081830303815290604052805190602001201490508082604001519350935050505b9250929050565b60008180516020810182018051848252602083016020850120818352809550505050505060009150905080600001805461061e90610ba6565b80601f016020809104026020016040519081016040528092919081815260200182805461064a90610ba6565b80156106975780601f1061066c57610100808354040283529160200191610697565b820191906000526020600020905b81548152906001019060200180831161067a57829003601f168201915b5050505050908060010180546106ac90610ba6565b80601f01602080910402602001604051908101604052809291908181526020018280546106d890610ba6565b80156107255780601f106106fa57610100808354040283529160200191610725565b820191906000526020600020905b81548152906001019060200180831161070857829003601f168201915b5050505050908060020154908060030160009054906101000a900460ff16905084565b6000604051905090565b600080fd5b600080fd5b600080fd5b600080fd5b6000601f19601f8301169050919050565b7f4e487b7100000000000000000000000000000000000000000000000000000000600052604160045260246000fd5b6107af82610766565b810181811067ffffffffffffffff821117156107ce576107cd610777565b5b80604052505050565b60006107e1610748565b90506107ed82826107a6565b919050565b600067ffffffffffffffff82111561080d5761080c610777565b5b61081682610766565b9050602081019050919050565b82818337600083830152505050565b6000610845610840846107f2565b6107d7565b90508281526020810184848401111561086157610860610761565b5b61086c848285610823565b509392505050565b600082601f8301126108895761088861075c565b5b8135610899848260208601610832565b91505092915050565b600080604083850312156108b9576108b8610752565b5b600083013567ffffffffffffffff8111156108d7576108d6610757565b5b6108e385828601610874565b925050602083013567ffffffffffffffff81111561090457610903610757565b5b61091085828601610874565b9150509250929050565b6000602082840312156109305761092f610752565b5b600082013567ffffffffffffffff81111561094e5761094d610757565b5b61095a84828501610874565b91505092915050565b600081519050919050565b600082825260208201905092915050565b60005b8381101561099d578082015181840152602081019050610982565b60008484015250505050565b60006109b482610963565b6109be818561096e565b93506109ce81856020860161097f565b6109d781610766565b840191505092915050565b6000819050919050565b6109f5816109e2565b82525050565b60008115159050919050565b610a10816109fb565b82525050565b60006080820190508181036000830152610a3081876109a9565b90508181036020830152610a4481866109a9565b9050610a5360408301856109ec565b610a606060830184610a07565b95945050505050565b6000604082019050610a7e6000830185610a07565b610a8b60208301846109ec565b9392505050565b600081905092915050565b6000610aa882610963565b610ab28185610a92565b9350610ac281856020860161097f565b80840191505092915050565b6000610ada8284610a9d565b915081905092915050565b7f4365727469666963617465206e756d62657220616c726561647920657869737460008201527f7300000000000000000000000000000000000000000000000000000000000000602082015250565b6000610b4160218361096e565b9150610b4c82610ae5565b604082019050919050565b60006020820190508181036000830152610b7081610b34565b9050919050565b7f4e487b7100000000000000000000000000000000000000000000000000000000600052602260045260246000fd5b60006002820490506001821680610bbe57607f821691505b602082108103610bd157610bd0610b77565b5b50919050565b60008190508160005260206000209050919050565b60006020601f8301049050919050565b600082821b905092915050565b600060088302610c397fffffffffffffffffffffffffffffffffffffffffffffffffffffffffffffffff82610bfc565b610c438683610bfc565b95508019841693508086168417925050509392505050565b6000819050919050565b6000610c80610c7b610c76846109e2565b610c5b565b6109e2565b9050919050565b6000819050919050565b610c9a83610c65565b610cae610ca682610c87565b848454610c09565b825550505050565b600090565b610cc3610cb6565b610cce818484610c91565b505050565b5b81811015610cf257610ce7600082610cbb565b600181019050610cd4565b5050565b601f821115610d3757610d0881610bd7565b610d1184610bec565b81016020851015610d20578190505b610d34610d2c85610bec565b830182610cd3565b50505b505050565b600082821c905092915050565b6000610d5a60001984600802610d3c565b1980831691505092915050565b6000610d738383610d49565b9150826002028217905092915050565b610d8c82610963565b67ffffffffffffffff811115610da557610da4610777565b5b610daf8254610ba6565b610dba828285610cf6565b600060209050601f831160018114610ded5760008415610ddb578287015190505b610de58582610d67565b865550610e4d565b601f198416610dfb86610bd7565b60005b82811015610e2357848901518255600182019150602085019450602081019050610dfe565b86831015610e405784890151610e3c601f891682610d49565b8355505b6001600288020188555050505b505050505050565b60006060820190508181036000830152610e6f81866109a9565b90508181036020830152610e8381856109a9565b9050610e9260408301846109ec565b94935050505056fea264697066735822122087b2562b12d8f60ac7eeed993a1103bf6b7358c310479db3f91d3b2cad6dc68964736f6c63430008130033",
  "linkReferences": {},
  "deployedLinkReferences": {}
}